{
  "contractName": "OrderContract",
  "abi": [
    {
      "anonymous": false,
      "inputs": [
        {
          "indexed": false,
          "internalType": "uint256",
          "name": "id",
          "type": "uint256"
        }
      ],
      "name": "OrderFulfilled",
      "type": "event"
    },
    {
      "anonymous": false,
      "inputs": [
        {
          "indexed": false,
          "internalType": "uint256",
          "name": "id",
          "type": "uint256"
        },
        {
          "indexed": false,
          "internalType": "string",
          "name": "item",
          "type": "string"
        },
        {
          "indexed": false,
          "internalType": "uint256",
          "name": "quantity",
          "type": "uint256"
        },
        {
          "indexed": false,
          "internalType": "uint256",
          "name": "price",
          "type": "uint256"
        },
        {
          "indexed": false,
          "internalType": "address",
          "name": "customer",
          "type": "address"
        }
      ],
      "name": "OrderPlaced",
      "type": "event"
    },
    {
      "inputs": [],
      "name": "nextOrderId",
      "outputs": [
        {
          "internalType": "uint256",
          "name": "",
          "type": "uint256"
        }
      ],
      "stateMutability": "view",
      "type": "function"
    },
    {
      "inputs": [
        {
          "internalType": "uint256",
          "name": "",
          "type": "uint256"
        }
      ],
      "name": "orders",
      "outputs": [
        {
          "internalType": "uint256",
          "name": "id",
          "type": "uint256"
        },
        {
          "internalType": "string",
          "name": "item",
          "type": "string"
        },
        {
          "internalType": "uint256",
          "name": "quantity",
          "type": "uint256"
        },
        {
          "internalType": "uint256",
          "name": "price",
          "type": "uint256"
        },
        {
          "internalType": "address",
          "name": "customer",
          "type": "address"
        },
        {
          "internalType": "bool",
          "name": "fulfilled",
          "type": "bool"
        }
      ],
      "stateMutability": "view",
      "type": "function"
    },
    {
      "inputs": [
        {
          "internalType": "string",
          "name": "item",
          "type": "string"
        },
        {
          "internalType": "uint256",
          "name": "quantity",
          "type": "uint256"
        },
        {
          "internalType": "uint256",
          "name": "price",
          "type": "uint256"
        }
      ],
      "name": "placeOrder",
      "outputs": [],
      "stateMutability": "nonpayable",
      "type": "function"
    },
    {
      "inputs": [
        {
          "internalType": "uint256",
          "name": "orderId",
          "type": "uint256"
        }
      ],
      "name": "fulfillOrder",
      "outputs": [],
      "stateMutability": "nonpayable",
      "type": "function"
    },
    {
      "inputs": [
        {
          "internalType": "uint256",
          "name": "orderId",
          "type": "uint256"
        }
      ],
      "name": "getOrder",
      "outputs": [
        {
          "internalType": "uint256",
          "name": "",
          "type": "uint256"
        },
        {
          "internalType": "string",
          "name": "",
          "type": "string"
        },
        {
          "internalType": "uint256",
          "name": "",
          "type": "uint256"
        },
        {
          "internalType": "uint256",
          "name": "",
          "type": "uint256"
        },
        {
          "internalType": "address",
          "name": "",
          "type": "address"
        },
        {
          "internalType": "bool",
          "name": "",
          "type": "bool"
        }
      ],
      "stateMutability": "view",
      "type": "function"
    }
  ],
  "bytecode": "0x608060405234801561001057600080fd5b50610cff806100206000396000f3fe608060405234801561001057600080fd5b50600436106100575760003560e01c80632a58b3301461005c5780636311e8301461007a57806388b922d514610096578063a85c38ef146100b2578063d09ef241146100e7575b600080fd5b61006461011c565b60405161007191906109b5565b60405180910390f35b610094600480360381019061008f91906107e0565b610122565b005b6100b060048036038101906100ab9190610779565b6102b9565b005b6100cc60048036038101906100c791906107e0565b610417565b6040516100de96959493929190610a2a565b60405180910390f35b61010160048036038101906100fc91906107e0565b610508565b60405161011396959493929190610a2a565b60405180910390f35b60005481565b6000548110610166576040517f08c379a000000000000000000000000000000000000000000000000000000000815260040161015d90610975565b60405180910390fd5b60006001600083815260200190815260200160002090503373ffffffffffffffffffffffffffffffffffffffff168160040160009054906101000a900473ffffffffffffffffffffffffffffffffffffffff1673ffffffffffffffffffffffffffffffffffffffff161461020f576040517f08c379a000000000000000000000000000000000000000000000000000000000815260040161020690610995565b60405180910390fd5b8060040160149054906101000a900460ff1615610261576040517f08c379a000000000000000000000000000000000000000000000000000000000815260040161025890610955565b60405180910390fd5b60018160040160146101000a81548160ff0219169083151502179055507fd276fbc5e545783825cac5416bad154c47e39daebf44589255a65b4f56cf3e0e826040516102ad91906109b5565b60405180910390a15050565b6040518060c0016040528060005481526020018481526020018381526020018281526020013373ffffffffffffffffffffffffffffffffffffffff16815260200160001515815250600160008054815260200190815260200160002060008201518160000155602082015181600101908051906020019061033b929190610659565b50604082015181600201556060820151816003015560808201518160040160006101000a81548173ffffffffffffffffffffffffffffffffffffffff021916908373ffffffffffffffffffffffffffffffffffffffff16021790555060a08201518160040160146101000a81548160ff0219169083151502179055509050507fcad52d6600ffaa1ba7f9cb074fe1ed1805da7aab32a1054d414535035e3a7a0f600054848484336040516103f39594939291906109d0565b60405180910390a160008081548092919061040d90610bcb565b9190505550505050565b600160205280600052604060002060009150905080600001549080600101805461044090610b99565b80601f016020809104026020016040519081016040528092919081815260200182805461046c90610b99565b80156104b95780601f1061048e576101008083540402835291602001916104b9565b820191906000526020600020905b81548152906001019060200180831161049c57829003601f168201915b5050505050908060020154908060030154908060040160009054906101000a900473ffffffffffffffffffffffffffffffffffffffff16908060040160149054906101000a900460ff16905086565b600060606000806000806000548710610556576040517f08c379a000000000000000000000000000000000000000000000000000000000815260040161054d90610975565b60405180910390fd5b6000600160008981526020019081526020016000209050806000015481600101826002015483600301548460040160009054906101000a900473ffffffffffffffffffffffffffffffffffffffff168560040160149054906101000a900460ff168480546105c390610b99565b80601f01602080910402602001604051908101604052809291908181526020018280546105ef90610b99565b801561063c5780601f106106115761010080835404028352916020019161063c565b820191906000526020600020905b81548152906001019060200180831161061f57829003601f168201915b505050505094509650965096509650965096505091939550919395565b82805461066590610b99565b90600052602060002090601f01602090048101928261068757600085556106ce565b82601f106106a057805160ff19168380011785556106ce565b828001600101855582156106ce579182015b828111156106cd5782518255916020019190600101906106b2565b5b5090506106db91906106df565b5090565b5b808211156106f85760008160009055506001016106e0565b5090565b600061070f61070a84610ac3565b610a92565b90508281526020810184848401111561072757600080fd5b610732848285610b57565b509392505050565b600082601f83011261074b57600080fd5b813561075b8482602086016106fc565b91505092915050565b60008135905061077381610cb2565b92915050565b60008060006060848603121561078e57600080fd5b600084013567ffffffffffffffff8111156107a857600080fd5b6107b48682870161073a565b93505060206107c586828701610764565b92505060406107d686828701610764565b9150509250925092565b6000602082840312156107f257600080fd5b600061080084828501610764565b91505092915050565b61081281610b0f565b82525050565b61082181610b21565b82525050565b600061083282610af3565b61083c8185610afe565b935061084c818560208601610b66565b61085581610ca1565b840191505092915050565b600061086d601b83610afe565b91507f4f7264657220697320616c72656164792066756c66696c6c65642e00000000006000830152602082019050919050565b60006108ad601583610afe565b91507f4f7264657220646f6573206e6f742065786973742e00000000000000000000006000830152602082019050919050565b60006108ed602883610afe565b91507f4f6e6c792074686520637573746f6d65722063616e2066756c66696c6c20746860008301527f65206f726465722e0000000000000000000000000000000000000000000000006020830152604082019050919050565b61094f81610b4d565b82525050565b6000602082019050818103600083015261096e81610860565b9050919050565b6000602082019050818103600083015261098e816108a0565b9050919050565b600060208201905081810360008301526109ae816108e0565b9050919050565b60006020820190506109ca6000830184610946565b92915050565b600060a0820190506109e56000830188610946565b81810360208301526109f78187610827565b9050610a066040830186610946565b610a136060830185610946565b610a206080830184610809565b9695505050505050565b600060c082019050610a3f6000830189610946565b8181036020830152610a518188610827565b9050610a606040830187610946565b610a6d6060830186610946565b610a7a6080830185610809565b610a8760a0830184610818565b979650505050505050565b6000604051905081810181811067ffffffffffffffff82111715610ab957610ab8610c72565b5b8060405250919050565b600067ffffffffffffffff821115610ade57610add610c72565b5b601f19601f8301169050602081019050919050565b600081519050919050565b600082825260208201905092915050565b6000610b1a82610b2d565b9050919050565b60008115159050919050565b600073ffffffffffffffffffffffffffffffffffffffff82169050919050565b6000819050919050565b82818337600083830152505050565b60005b83811015610b84578082015181840152602081019050610b69565b83811115610b93576000848401525b50505050565b60006002820490506001821680610bb157607f821691505b60208210811415610bc557610bc4610c43565b5b50919050565b6000610bd682610b4d565b91507fffffffffffffffffffffffffffffffffffffffffffffffffffffffffffffffff821415610c0957610c08610c14565b5b600182019050919050565b7f4e487b7100000000000000000000000000000000000000000000000000000000600052601160045260246000fd5b7f4e487b7100000000000000000000000000000000000000000000000000000000600052602260045260246000fd5b7f4e487b7100000000000000000000000000000000000000000000000000000000600052604160045260246000fd5b6000601f19601f8301169050919050565b610cbb81610b4d565b8114610cc657600080fd5b5056fea2646970667358221220d78a6f1caad66b92e6fec7b3e5f389e6f9318228e333682a35b02c26a5fd6ec464736f6c63430008000033",
  "immutableReferences": {},
  "source": "// SPDX-License-Identifier: MIT\r\npragma solidity ^0.8.0;\r\n\r\ncontract OrderContract {\r\n    struct Order {\r\n        uint id;\r\n        string item;\r\n        uint quantity;\r\n        uint price;\r\n        address customer;\r\n        bool fulfilled;\r\n    }\r\n\r\n    uint public nextOrderId;\r\n    mapping(uint => Order) public orders;\r\n\r\n    event OrderPlaced(uint id, string item, uint quantity, uint price, address customer);\r\n    event OrderFulfilled(uint id);\r\n\r\n    function placeOrder(string memory item, uint quantity, uint price) public {\r\n        orders[nextOrderId] = Order(nextOrderId, item, quantity, price, msg.sender, false);\r\n        emit OrderPlaced(nextOrderId, item, quantity, price, msg.sender);\r\n        nextOrderId++;\r\n    }\r\n\r\n    function fulfillOrder(uint orderId) public {\r\n        require(orderId < nextOrderId, \"Order does not exist.\");\r\n        Order storage order = orders[orderId];\r\n        require(order.customer == msg.sender, \"Only the customer can fulfill the order.\");\r\n        require(!order.fulfilled, \"Order is already fulfilled.\");\r\n        order.fulfilled = true;\r\n        emit OrderFulfilled(orderId);\r\n    }\r\n\r\n    function getOrder(uint orderId) public view returns (uint, string memory, uint, uint, address, bool) {\r\n        require(orderId < nextOrderId, \"Order does not exist.\");\r\n        Order storage order = orders[orderId];\r\n        return (order.id, order.item, order.quantity, order.price, order.customer, order.fulfilled);\r\n    }\r\n}\r\n",
  "sourcePath": "F:\\4th Year\\Research\\Thesis\\final-year-project\\backend\\blockchain\\contracts\\OrderContract.sol",
  "compiler": {
    "name": "solc",
    "version": "0.8.0+commit.c7dfd78e.Emscripten.clang"
  },
  "schemaVersion": "3.4.16",
  "updatedAt": "2024-08-09T06:56:17.363Z",
  "devdoc": {
    "kind": "dev",
    "methods": {},
    "version": 1
  },
  "userdoc": {
    "kind": "user",
    "methods": {},
    "version": 1
  }
}